{
  "_format": "hh-sol-artifact-1",
  "contractName": "AccidentDataStorage",
  "sourceName": "contracts/AccidentDataStorage.sol",
  "abi": [
    {
      "anonymous": false,
      "inputs": [
        {
          "indexed": true,
          "internalType": "address",
          "name": "sender",
          "type": "address"
        },
        {
          "indexed": false,
          "internalType": "string",
          "name": "ipfsHash",
          "type": "string"
        }
      ],
      "name": "DataStored",
      "type": "event"
    },
    {
      "inputs": [],
      "name": "getData",
      "outputs": [
        {
          "internalType": "string",
          "name": "",
          "type": "string"
        }
      ],
      "stateMutability": "view",
      "type": "function"
    },
    {
      "inputs": [],
      "name": "ipfsHash",
      "outputs": [
        {
          "internalType": "string",
          "name": "",
          "type": "string"
        }
      ],
      "stateMutability": "view",
      "type": "function"
    },
    {
      "inputs": [
        {
          "internalType": "string",
          "name": "_ipfsHash",
          "type": "string"
        }
      ],
      "name": "storeData",
      "outputs": [],
      "stateMutability": "nonpayable",
      "type": "function"
    }
  ],
  "bytecode": "0x608060405234801561001057600080fd5b50610563806100206000396000f3fe608060405234801561001057600080fd5b50600436106100415760003560e01c80633bc5de3014610046578063c623674f14610064578063fb218f5f14610082575b600080fd5b61004e61009e565b60405161005b91906103ab565b60405180910390f35b61006c610130565b60405161007991906103ab565b60405180910390f35b61009c60048036038101906100979190610331565b6101be565b005b6060600080546100ad9061048c565b80601f01602080910402602001604051908101604052809291908181526020018280546100d99061048c565b80156101265780601f106100fb57610100808354040283529160200191610126565b820191906000526020600020905b81548152906001019060200180831161010957829003601f168201915b5050505050905090565b6000805461013d9061048c565b80601f01602080910402602001604051908101604052809291908181526020018280546101699061048c565b80156101b65780601f1061018b576101008083540402835291602001916101b6565b820191906000526020600020905b81548152906001019060200180831161019957829003601f168201915b505050505081565b80600090805190602001906101d4929190610226565b503373ffffffffffffffffffffffffffffffffffffffff167f4b33dafb50dac5530c30aca4e4069fd67a18220888b874b8519558d1769d49a18260405161021b91906103ab565b60405180910390a250565b8280546102329061048c565b90600052602060002090601f016020900481019282610254576000855561029b565b82601f1061026d57805160ff191683800117855561029b565b8280016001018555821561029b579182015b8281111561029a57825182559160200191906001019061027f565b5b5090506102a891906102ac565b5090565b5b808211156102c55760008160009055506001016102ad565b5090565b60006102dc6102d7846103fe565b6103cd565b9050828152602081018484840111156102f457600080fd5b6102ff84828561044a565b509392505050565b600082601f83011261031857600080fd5b81356103288482602086016102c9565b91505092915050565b60006020828403121561034357600080fd5b600082013567ffffffffffffffff81111561035d57600080fd5b61036984828501610307565b91505092915050565b600061037d8261042e565b6103878185610439565b9350610397818560208601610459565b6103a08161051c565b840191505092915050565b600060208201905081810360008301526103c58184610372565b905092915050565b6000604051905081810181811067ffffffffffffffff821117156103f4576103f36104ed565b5b8060405250919050565b600067ffffffffffffffff821115610419576104186104ed565b5b601f19601f8301169050602081019050919050565b600081519050919050565b600082825260208201905092915050565b82818337600083830152505050565b60005b8381101561047757808201518184015260208101905061045c565b83811115610486576000848401525b50505050565b600060028204905060018216806104a457607f821691505b602082108114156104b8576104b76104be565b5b50919050565b7f4e487b7100000000000000000000000000000000000000000000000000000000600052602260045260246000fd5b7f4e487b7100000000000000000000000000000000000000000000000000000000600052604160045260246000fd5b6000601f19601f830116905091905056fea2646970667358221220b90841bce415641bab4b958af20d7221d44d4d7822429faeb2f1891c2931511064736f6c63430008000033",
  "linkReferences": {},
  "deployedLinkReferences": {}
}