{
  "_format": "hh-sol-artifact-1",
  "contractName": "RoadHazardStorage",
  "sourceName": "contracts/RoadHazardStorage.sol",
  "abi": [
    {
      "inputs": [
        {
          "internalType": "address[]",
          "name": "_trustedNodes",
          "type": "address[]"
        }
      ],
      "stateMutability": "nonpayable",
      "type": "constructor"
    },
    {
      "anonymous": false,
      "inputs": [
        {
          "indexed": false,
          "internalType": "string",
          "name": "ipfsHash",
          "type": "string"
        }
      ],
      "name": "AccidentDataStored",
      "type": "event"
    },
    {
      "anonymous": false,
      "inputs": [
        {
          "indexed": true,
          "internalType": "address",
          "name": "vehicle",
          "type": "address"
        },
        {
          "indexed": false,
          "internalType": "uint256",
          "name": "speed",
          "type": "uint256"
        },
        {
          "indexed": false,
          "internalType": "uint256",
          "name": "position",
          "type": "uint256"
        },
        {
          "indexed": false,
          "internalType": "uint256",
          "name": "timestamp",
          "type": "uint256"
        }
      ],
      "name": "DataBroadcasted",
      "type": "event"
    },
    {
      "anonymous": false,
      "inputs": [
        {
          "indexed": true,
          "internalType": "address",
          "name": "vehicle",
          "type": "address"
        },
        {
          "indexed": false,
          "internalType": "uint256",
          "name": "speed",
          "type": "uint256"
        },
        {
          "indexed": false,
          "internalType": "uint256",
          "name": "position",
          "type": "uint256"
        },
        {
          "indexed": false,
          "internalType": "uint256",
          "name": "timestamp",
          "type": "uint256"
        }
      ],
      "name": "DataValidated",
      "type": "event"
    },
    {
      "anonymous": false,
      "inputs": [
        {
          "indexed": true,
          "internalType": "address",
          "name": "vehicle",
          "type": "address"
        },
        {
          "indexed": false,
          "internalType": "uint256",
          "name": "position",
          "type": "uint256"
        },
        {
          "indexed": false,
          "internalType": "uint256",
          "name": "timestamp",
          "type": "uint256"
        },
        {
          "indexed": false,
          "internalType": "string",
          "name": "hazardType",
          "type": "string"
        }
      ],
      "name": "HazardDetected",
      "type": "event"
    },
    {
      "anonymous": false,
      "inputs": [
        {
          "indexed": false,
          "internalType": "uint256",
          "name": "position",
          "type": "uint256"
        },
        {
          "indexed": false,
          "internalType": "uint256",
          "name": "timestamp",
          "type": "uint256"
        },
        {
          "indexed": false,
          "internalType": "string",
          "name": "hazardType",
          "type": "string"
        }
      ],
      "name": "HazardShared",
      "type": "event"
    },
    {
      "anonymous": false,
      "inputs": [
        {
          "indexed": false,
          "internalType": "string",
          "name": "ipfsHash",
          "type": "string"
        }
      ],
      "name": "TrafficDataStored",
      "type": "event"
    },
    {
      "inputs": [],
      "name": "POSITION_RANGE",
      "outputs": [
        {
          "internalType": "uint256",
          "name": "",
          "type": "uint256"
        }
      ],
      "stateMutability": "view",
      "type": "function"
    },
    {
      "inputs": [],
      "name": "SPEED_THRESHOLD",
      "outputs": [
        {
          "internalType": "uint256",
          "name": "",
          "type": "uint256"
        }
      ],
      "stateMutability": "view",
      "type": "function"
    },
    {
      "inputs": [],
      "name": "accidentIpfsHash",
      "outputs": [
        {
          "internalType": "string",
          "name": "",
          "type": "string"
        }
      ],
      "stateMutability": "view",
      "type": "function"
    },
    {
      "inputs": [
        {
          "internalType": "uint256",
          "name": "speed",
          "type": "uint256"
        },
        {
          "internalType": "uint256",
          "name": "position",
          "type": "uint256"
        },
        {
          "internalType": "uint256",
          "name": "timestamp",
          "type": "uint256"
        }
      ],
      "name": "broadcastData",
      "outputs": [],
      "stateMutability": "nonpayable",
      "type": "function"
    },
    {
      "inputs": [
        {
          "internalType": "uint256",
          "name": "",
          "type": "uint256"
        }
      ],
      "name": "detectedHazards",
      "outputs": [
        {
          "internalType": "uint256",
          "name": "position",
          "type": "uint256"
        },
        {
          "internalType": "uint256",
          "name": "timestamp",
          "type": "uint256"
        },
        {
          "internalType": "string",
          "name": "hazardType",
          "type": "string"
        }
      ],
      "stateMutability": "view",
      "type": "function"
    },
    {
      "inputs": [],
      "name": "getAccidentData",
      "outputs": [
        {
          "internalType": "string",
          "name": "",
          "type": "string"
        }
      ],
      "stateMutability": "view",
      "type": "function"
    },
    {
      "inputs": [],
      "name": "getAllHazards",
      "outputs": [
        {
          "components": [
            {
              "internalType": "uint256",
              "name": "position",
              "type": "uint256"
            },
            {
              "internalType": "uint256",
              "name": "timestamp",
              "type": "uint256"
            },
            {
              "internalType": "string",
              "name": "hazardType",
              "type": "string"
            }
          ],
          "internalType": "struct RoadHazardStorage.Hazard[]",
          "name": "",
          "type": "tuple[]"
        }
      ],
      "stateMutability": "view",
      "type": "function"
    },
    {
      "inputs": [],
      "name": "getTrafficData",
      "outputs": [
        {
          "internalType": "string",
          "name": "",
          "type": "string"
        }
      ],
      "stateMutability": "view",
      "type": "function"
    },
    {
      "inputs": [
        {
          "internalType": "address",
          "name": "node",
          "type": "address"
        }
      ],
      "name": "isTrustedNode",
      "outputs": [
        {
          "internalType": "bool",
          "name": "",
          "type": "bool"
        }
      ],
      "stateMutability": "view",
      "type": "function"
    },
    {
      "inputs": [],
      "name": "shareHazards",
      "outputs": [],
      "stateMutability": "nonpayable",
      "type": "function"
    },
    {
      "inputs": [
        {
          "internalType": "string",
          "name": "_ipfsHash",
          "type": "string"
        }
      ],
      "name": "storeAccidentData",
      "outputs": [],
      "stateMutability": "nonpayable",
      "type": "function"
    },
    {
      "inputs": [
        {
          "internalType": "string",
          "name": "_ipfsHash",
          "type": "string"
        }
      ],
      "name": "storeTrafficData",
      "outputs": [],
      "stateMutability": "nonpayable",
      "type": "function"
    },
    {
      "inputs": [],
      "name": "trafficIpfsHash",
      "outputs": [
        {
          "internalType": "string",
          "name": "",
          "type": "string"
        }
      ],
      "stateMutability": "view",
      "type": "function"
    },
    {
      "inputs": [
        {
          "internalType": "uint256",
          "name": "",
          "type": "uint256"
        }
      ],
      "name": "trustedNodes",
      "outputs": [
        {
          "internalType": "address",
          "name": "",
          "type": "address"
        }
      ],
      "stateMutability": "view",
      "type": "function"
    },
    {
      "inputs": [
        {
          "internalType": "address",
          "name": "",
          "type": "address"
        }
      ],
      "name": "vehicleData",
      "outputs": [
        {
          "internalType": "uint256",
          "name": "speed",
          "type": "uint256"
        },
        {
          "internalType": "uint256",
          "name": "position",
          "type": "uint256"
        },
        {
          "internalType": "uint256",
          "name": "timestamp",
          "type": "uint256"
        }
      ],
      "stateMutability": "view",
      "type": "function"
    }
  ],
  "bytecode": "0x60806040523480156200001157600080fd5b5060405162001c9e38038062001c9e8339818101604052810190620000379190620001be565b80600490805190602001906200004f92919062000057565b5050620002e3565b828054828255906000526020600020908101928215620000d3579160200282015b82811115620000d25782518260006101000a81548173ffffffffffffffffffffffffffffffffffffffff021916908373ffffffffffffffffffffffffffffffffffffffff1602179055509160200191906001019062000078565b5b509050620000e29190620000e6565b5090565b5b8082111562000101576000816000905550600101620000e7565b5090565b60006200011c620001168462000237565b62000203565b905080838252602082019050828560208602820111156200013c57600080fd5b60005b858110156200017057816200015588826200017a565b8452602084019350602083019250506001810190506200013f565b5050509392505050565b6000815190506200018b81620002c9565b92915050565b600082601f830112620001a357600080fd5b8151620001b584826020860162000105565b91505092915050565b600060208284031215620001d157600080fd5b600082015167ffffffffffffffff811115620001ec57600080fd5b620001fa8482850162000191565b91505092915050565b6000604051905081810181811067ffffffffffffffff821117156200022d576200022c6200029a565b5b8060405250919050565b600067ffffffffffffffff8211156200025557620002546200029a565b5b602082029050602081019050919050565b600062000273826200027a565b9050919050565b600073ffffffffffffffffffffffffffffffffffffffff82169050919050565b7f4e487b7100000000000000000000000000000000000000000000000000000000600052604160045260246000fd5b620002d48162000266565b8114620002e057600080fd5b50565b6119ab80620002f36000396000f3fe608060405234801561001057600080fd5b50600436106100f55760003560e01c80636b5710ad116100975780638dd9fc98116100665780638dd9fc98146102785780639aeef91a14610294578063ceecdaa01461029e578063d0e21688146102d0576100f5565b80636b5710ad146101ee57806375e6641a1461021e578063831cfad61461023c5780638830f8331461025a576100f5565b806340b56ff7116100d357806340b56ff7146101665780635412bb9b1461018257806367769216146101a057806367cc2b15146101bc576100f5565b80630db6adac146100fa57806329bd98ce146101185780632f739b1d14610136575b600080fd5b6101026102ee565b60405161010f919061156b565b60405180910390f35b610120610380565b60405161012d919061164d565b60405180910390f35b610150600480360381019061014b91906110de565b610385565b60405161015d9190611550565b60405180910390f35b610180600480360381019061017b9190611107565b61045a565b005b61018a6104ef565b604051610197919061156b565b60405180910390f35b6101ba60048036038101906101b59190611107565b61057d565b005b6101d660048036038101906101d19190611148565b610612565b6040516101e593929190611668565b60405180910390f35b61020860048036038101906102039190611148565b6106d4565b6040516102159190611513565b60405180910390f35b610226610713565b604051610233919061156b565b60405180910390f35b6102446107a1565b604051610251919061152e565b60405180910390f35b6102626108a6565b60405161026f919061164d565b60405180910390f35b610292600480360381019061028d9190611171565b6108ac565b005b61029c610a4f565b005b6102b860048036038101906102b391906110de565b610c02565b6040516102c7939291906116a6565b60405180910390f35b6102d8610c2c565b6040516102e5919061156b565b60405180910390f35b6060600280546102fd9061182e565b80601f01602080910402602001604051908101604052809291908181526020018280546103299061182e565b80156103765780601f1061034b57610100808354040283529160200191610376565b820191906000526020600020905b81548152906001019060200180831161035957829003601f168201915b5050505050905090565b606481565b600080600090505b60048054905081101561044f578273ffffffffffffffffffffffffffffffffffffffff16600482815481106103eb577f4e487b7100000000000000000000000000000000000000000000000000000000600052603260045260246000fd5b9060005260206000200160009054906101000a900473ffffffffffffffffffffffffffffffffffffffff1673ffffffffffffffffffffffffffffffffffffffff16141561043c576001915050610455565b808061044790611860565b91505061038d565b50600090505b919050565b600081511161049e576040517f08c379a00000000000000000000000000000000000000000000000000000000081526004016104959061160d565b60405180910390fd5b80600290805190602001906104b4929190610fa9565b507f92d4bb9a3473ac37cd708b9397aee012acdaef6d73de7a03a15c87314c6bd998816040516104e4919061156b565b60405180910390a150565b600280546104fc9061182e565b80601f01602080910402602001604051908101604052809291908181526020018280546105289061182e565b80156105755780601f1061054a57610100808354040283529160200191610575565b820191906000526020600020905b81548152906001019060200180831161055857829003601f168201915b505050505081565b60008151116105c1576040517f08c379a00000000000000000000000000000000000000000000000000000000081526004016105b89061160d565b60405180910390fd5b80600390805190602001906105d7929190610fa9565b507f74c29b4c18b0b576157dc493a73b86def7a97b2cd7134160c283ce5fa8d27b1f81604051610607919061156b565b60405180910390a150565b6001818154811061062257600080fd5b90600052602060002090600302016000915090508060000154908060010154908060020180546106519061182e565b80601f016020809104026020016040519081016040528092919081815260200182805461067d9061182e565b80156106ca5780601f1061069f576101008083540402835291602001916106ca565b820191906000526020600020905b8154815290600101906020018083116106ad57829003601f168201915b5050505050905083565b600481815481106106e457600080fd5b906000526020600020016000915054906101000a900473ffffffffffffffffffffffffffffffffffffffff1681565b600380546107209061182e565b80601f016020809104026020016040519081016040528092919081815260200182805461074c9061182e565b80156107995780601f1061076e57610100808354040283529160200191610799565b820191906000526020600020905b81548152906001019060200180831161077c57829003601f168201915b505050505081565b60606001805480602002602001604051908101604052809291908181526020016000905b8282101561089d5783829060005260206000209060030201604051806060016040529081600082015481526020016001820154815260200160028201805461080c9061182e565b80601f01602080910402602001604051908101604052809291908181526020018280546108389061182e565b80156108855780601f1061085a57610100808354040283529160200191610885565b820191906000526020600020905b81548152906001019060200180831161086857829003601f168201915b505050505081525050815260200190600101906107c5565b50505050905090565b6101f481565b600083116108ef576040517f08c379a00000000000000000000000000000000000000000000000000000000081526004016108e6906115ad565b60405180910390fd5b60008211610932576040517f08c379a0000000000000000000000000000000000000000000000000000000008152600401610929906115ed565b60405180910390fd5b60008111610975576040517f08c379a000000000000000000000000000000000000000000000000000000000815260040161096c9061158d565b60405180910390fd5b6040518060600160405280848152602001838152602001828152506000803373ffffffffffffffffffffffffffffffffffffffff1673ffffffffffffffffffffffffffffffffffffffff1681526020019081526020016000206000820151816000015560208201518160010155604082015181600201559050503373ffffffffffffffffffffffffffffffffffffffff167fffb628e7129b4796878a1465a12d9ed67bb974ec59a43c5d173bc0e264e3be97848484604051610a39939291906116a6565b60405180910390a2610a4a33610cbe565b505050565b610a5833610385565b610a97576040517f08c379a0000000000000000000000000000000000000000000000000000000008152600401610a8e906115cd565b60405180910390fd5b60005b600180549050811015610bff57600060018281548110610ae3577f4e487b7100000000000000000000000000000000000000000000000000000000600052603260045260246000fd5b90600052602060002090600302016040518060600160405290816000820154815260200160018201548152602001600282018054610b209061182e565b80601f0160208091040260200160405190810160405280929190818152602001828054610b4c9061182e565b8015610b995780601f10610b6e57610100808354040283529160200191610b99565b820191906000526020600020905b815481529060010190602001808311610b7c57829003601f168201915b50505050508152505090507f69ae5de3df88e1b3a827f19e3f772d2758183492c4e32c2155a9258679f91379816000015182602001518360400151604051610be393929190611668565b60405180910390a1508080610bf790611860565b915050610a9a565b50565b60006020528060005260406000206000915090508060000154908060010154908060020154905083565b606060038054610c3b9061182e565b80601f0160208091040260200160405190810160405280929190818152602001828054610c679061182e565b8015610cb45780601f10610c8957610100808354040283529160200191610cb4565b820191906000526020600020905b815481529060010190602001808311610c9757829003601f168201915b5050505050905090565b60008060008373ffffffffffffffffffffffffffffffffffffffff1673ffffffffffffffffffffffffffffffffffffffff168152602001908152602001600020604051806060016040529081600082015481526020016001820154815260200160028201548152505090506000816000015182602001518360400151604051602001610d4c939291906116a6565b6040516020818303038152906040528051906020012090506000801b811415610daa576040517f08c379a0000000000000000000000000000000000000000000000000000000008152600401610da19061162d565b60405180910390fd5b8273ffffffffffffffffffffffffffffffffffffffff167f8c58838e181efe2e375d18fd4d8ced49b5ca090794cd06c874176264140e3994836000015184602001518560400151604051610e00939291906116a6565b60405180910390a2610e1183610e16565b505050565b60008060008373ffffffffffffffffffffffffffffffffffffffff1673ffffffffffffffffffffffffffffffffffffffff16815260200190815260200160002060405180606001604052908160008201548152602001600182015481526020016002820154815250509050606481600001511115610fa55760006040518060400160405280600c81526020017f4f7665727370656564696e670000000000000000000000000000000000000000815250905060016040518060600160405280846020015181526020018460400151815260200183815250908060018154018082558091505060019003906000526020600020906003020160009091909190915060008201518160000155602082015181600101556040820151816002019080519060200190610f46929190610fa9565b5050508273ffffffffffffffffffffffffffffffffffffffff167fa9659f3a941261ebf60f497b11e63483c384c260f59e4770452d10001cb49daa8360200151846040015184604051610f9b93929190611668565b60405180910390a2505b5050565b828054610fb59061182e565b90600052602060002090601f016020900481019282610fd7576000855561101e565b82601f10610ff057805160ff191683800117855561101e565b8280016001018555821561101e579182015b8281111561101d578251825591602001919060010190611002565b5b50905061102b919061102f565b5090565b5b80821115611048576000816000905550600101611030565b5090565b600061105f61105a8461170e565b6116dd565b90508281526020810184848401111561107757600080fd5b6110828482856117ec565b509392505050565b60008135905061109981611947565b92915050565b600082601f8301126110b057600080fd5b81356110c084826020860161104c565b91505092915050565b6000813590506110d88161195e565b92915050565b6000602082840312156110f057600080fd5b60006110fe8482850161108a565b91505092915050565b60006020828403121561111957600080fd5b600082013567ffffffffffffffff81111561113357600080fd5b61113f8482850161109f565b91505092915050565b60006020828403121561115a57600080fd5b6000611168848285016110c9565b91505092915050565b60008060006060848603121561118657600080fd5b6000611194868287016110c9565b93505060206111a5868287016110c9565b92505060406111b6868287016110c9565b9150509250925092565b60006111cc83836114a5565b905092915050565b6111dd816117a4565b82525050565b60006111ee8261174e565b6111f88185611771565b93508360208202850161120a8561173e565b8060005b85811015611246578484038952815161122785826111c0565b945061123283611764565b925060208a0199505060018101905061120e565b50829750879550505050505092915050565b611261816117b6565b82525050565b600061127282611759565b61127c8185611782565b935061128c8185602086016117fb565b61129581611936565b840191505092915050565b60006112ab82611759565b6112b58185611793565b93506112c58185602086016117fb565b6112ce81611936565b840191505092915050565b60006112e6601783611793565b91507f54696d657374616d70206d7573742062652076616c69640000000000000000006000830152602082019050919050565b6000611326601f83611793565b91507f5370656564206d7573742062652067726561746572207468616e207a65726f006000830152602082019050919050565b6000611366602983611793565b91507f4f6e6c792074727573746564206e6f6465732063616e2063616c6c207468697360008301527f2066756e6374696f6e00000000000000000000000000000000000000000000006020830152604082019050919050565b60006113cc602283611793565b91507f506f736974696f6e206d7573742062652067726561746572207468616e207a6560008301527f726f0000000000000000000000000000000000000000000000000000000000006020830152604082019050919050565b6000611432601983611793565b91507f4950465320686173682063616e6e6f7420626520656d707479000000000000006000830152602082019050919050565b6000611472601b83611793565b91507f4461746120696e7465677269747920636865636b206661696c656400000000006000830152602082019050919050565b60006060830160008301516114bd60008601826114f5565b5060208301516114d060208601826114f5565b50604083015184820360408601526114e88282611267565b9150508091505092915050565b6114fe816117e2565b82525050565b61150d816117e2565b82525050565b600060208201905061152860008301846111d4565b92915050565b6000602082019050818103600083015261154881846111e3565b905092915050565b60006020820190506115656000830184611258565b92915050565b6000602082019050818103600083015261158581846112a0565b905092915050565b600060208201905081810360008301526115a6816112d9565b9050919050565b600060208201905081810360008301526115c681611319565b9050919050565b600060208201905081810360008301526115e681611359565b9050919050565b60006020820190508181036000830152611606816113bf565b9050919050565b6000602082019050818103600083015261162681611425565b9050919050565b6000602082019050818103600083015261164681611465565b9050919050565b60006020820190506116626000830184611504565b92915050565b600060608201905061167d6000830186611504565b61168a6020830185611504565b818103604083015261169c81846112a0565b9050949350505050565b60006060820190506116bb6000830186611504565b6116c86020830185611504565b6116d56040830184611504565b949350505050565b6000604051905081810181811067ffffffffffffffff8211171561170457611703611907565b5b8060405250919050565b600067ffffffffffffffff82111561172957611728611907565b5b601f19601f8301169050602081019050919050565b6000819050602082019050919050565b600081519050919050565b600081519050919050565b6000602082019050919050565b600082825260208201905092915050565b600082825260208201905092915050565b600082825260208201905092915050565b60006117af826117c2565b9050919050565b60008115159050919050565b600073ffffffffffffffffffffffffffffffffffffffff82169050919050565b6000819050919050565b82818337600083830152505050565b60005b838110156118195780820151818401526020810190506117fe565b83811115611828576000848401525b50505050565b6000600282049050600182168061184657607f821691505b6020821081141561185a576118596118d8565b5b50919050565b600061186b826117e2565b91507fffffffffffffffffffffffffffffffffffffffffffffffffffffffffffffffff82141561189e5761189d6118a9565b5b600182019050919050565b7f4e487b7100000000000000000000000000000000000000000000000000000000600052601160045260246000fd5b7f4e487b7100000000000000000000000000000000000000000000000000000000600052602260045260246000fd5b7f4e487b7100000000000000000000000000000000000000000000000000000000600052604160045260246000fd5b6000601f19601f8301169050919050565b611950816117a4565b811461195b57600080fd5b50565b611967816117e2565b811461197257600080fd5b5056fea2646970667358221220173c83d427e0f3fbf059fd511583a00b3c8b71d08e2cd7d8c29a8765a333287064736f6c63430008000033",
  "linkReferences": {},
  "deployedLinkReferences": {}
}