{
  "_format": "hh-sol-artifact-1",
  "contractName": "TrafficDataStorage",
  "sourceName": "contracts/TrafficDataStorage.sol",
  "abi": [
    {
      "anonymous": false,
      "inputs": [
        {
          "indexed": true,
          "internalType": "address",
          "name": "sender",
          "type": "address"
        },
        {
          "indexed": false,
          "internalType": "string",
          "name": "ipfsHash",
          "type": "string"
        }
      ],
      "name": "DataStored",
      "type": "event"
    },
    {
      "inputs": [],
      "name": "ipfsHash",
      "outputs": [
        {
          "internalType": "string",
          "name": "",
          "type": "string"
        }
      ],
      "stateMutability": "view",
      "type": "function"
    },
    {
      "inputs": [
        {
          "internalType": "string",
          "name": "_ipfsHash",
          "type": "string"
        }
      ],
      "name": "storeData",
      "outputs": [],
      "stateMutability": "nonpayable",
      "type": "function"
    }
  ],
  "bytecode": "0x6080604052348015600f57600080fd5b506106c68061001f6000396000f3fe608060405234801561001057600080fd5b50600436106100365760003560e01c8063c623674f1461003b578063fb218f5f14610059575b600080fd5b610043610075565b60405161005091906101f4565b60405180910390f35b610073600480360381019061006e919061035f565b610103565b005b60008054610082906103d7565b80601f01602080910402602001604051908101604052809291908181526020018280546100ae906103d7565b80156100fb5780601f106100d0576101008083540402835291602001916100fb565b820191906000526020600020905b8154815290600101906020018083116100de57829003601f168201915b505050505081565b806000908161011291906105be565b503373ffffffffffffffffffffffffffffffffffffffff167f4b33dafb50dac5530c30aca4e4069fd67a18220888b874b8519558d1769d49a18260405161015991906101f4565b60405180910390a250565b600081519050919050565b600082825260208201905092915050565b60005b8381101561019e578082015181840152602081019050610183565b60008484015250505050565b6000601f19601f8301169050919050565b60006101c682610164565b6101d0818561016f565b93506101e0818560208601610180565b6101e9816101aa565b840191505092915050565b6000602082019050818103600083015261020e81846101bb565b905092915050565b6000604051905090565b600080fd5b600080fd5b600080fd5b600080fd5b7f4e487b7100000000000000000000000000000000000000000000000000000000600052604160045260246000fd5b61026c826101aa565b810181811067ffffffffffffffff8211171561028b5761028a610234565b5b80604052505050565b600061029e610216565b90506102aa8282610263565b919050565b600067ffffffffffffffff8211156102ca576102c9610234565b5b6102d3826101aa565b9050602081019050919050565b82818337600083830152505050565b60006103026102fd846102af565b610294565b90508281526020810184848401111561031e5761031d61022f565b5b6103298482856102e0565b509392505050565b600082601f8301126103465761034561022a565b5b81356103568482602086016102ef565b91505092915050565b60006020828403121561037557610374610220565b5b600082013567ffffffffffffffff81111561039357610392610225565b5b61039f84828501610331565b91505092915050565b7f4e487b7100000000000000000000000000000000000000000000000000000000600052602260045260246000fd5b600060028204905060018216806103ef57607f821691505b602082108103610402576104016103a8565b5b50919050565b60008190508160005260206000209050919050565b60006020601f8301049050919050565b600082821b905092915050565b60006008830261046a7fffffffffffffffffffffffffffffffffffffffffffffffffffffffffffffffff8261042d565b610474868361042d565b95508019841693508086168417925050509392505050565b6000819050919050565b6000819050919050565b60006104bb6104b66104b18461048c565b610496565b61048c565b9050919050565b6000819050919050565b6104d5836104a0565b6104e96104e1826104c2565b84845461043a565b825550505050565b600090565b6104fe6104f1565b6105098184846104cc565b505050565b5b8181101561052d576105226000826104f6565b60018101905061050f565b5050565b601f8211156105725761054381610408565b61054c8461041d565b8101602085101561055b578190505b61056f6105678561041d565b83018261050e565b50505b505050565b600082821c905092915050565b600061059560001984600802610577565b1980831691505092915050565b60006105ae8383610584565b9150826002028217905092915050565b6105c782610164565b67ffffffffffffffff8111156105e0576105df610234565b5b6105ea82546103d7565b6105f5828285610531565b600060209050601f8311600181146106285760008415610616578287015190505b61062085826105a2565b865550610688565b601f19841661063686610408565b60005b8281101561065e57848901518255600182019150602085019450602081019050610639565b8683101561067b5784890151610677601f891682610584565b8355505b6001600288020188555050505b50505050505056fea264697066735822122004ea2b85fe6060bc516acda34a9959ea3b3c963500ac98ad4a4eb3de31f9d84764736f6c634300081c0033",
  "linkReferences": {},
  "deployedLinkReferences": {}
}