{
  "_format": "hh-sol-artifact-1",
  "contractName": "DataStorage",
  "sourceName": "contracts/DataStorage.sol",
  "abi": [
    {
      "anonymous": false,
      "inputs": [
        {
          "indexed": false,
          "internalType": "string",
          "name": "ipfsHash",
          "type": "string"
        }
      ],
      "name": "AccidentDataStored",
      "type": "event"
    },
    {
      "anonymous": false,
      "inputs": [
        {
          "indexed": false,
          "internalType": "string",
          "name": "ipfsHash",
          "type": "string"
        }
      ],
      "name": "TrafficDataStored",
      "type": "event"
    },
    {
      "inputs": [],
      "name": "accidentIpfsHash",
      "outputs": [
        {
          "internalType": "string",
          "name": "",
          "type": "string"
        }
      ],
      "stateMutability": "view",
      "type": "function"
    },
    {
      "inputs": [],
      "name": "getAccidentData",
      "outputs": [
        {
          "internalType": "string",
          "name": "",
          "type": "string"
        }
      ],
      "stateMutability": "view",
      "type": "function"
    },
    {
      "inputs": [],
      "name": "getTrafficData",
      "outputs": [
        {
          "internalType": "string",
          "name": "",
          "type": "string"
        }
      ],
      "stateMutability": "view",
      "type": "function"
    },
    {
      "inputs": [
        {
          "internalType": "string",
          "name": "_ipfsHash",
          "type": "string"
        }
      ],
      "name": "storeAccidentData",
      "outputs": [],
      "stateMutability": "nonpayable",
      "type": "function"
    },
    {
      "inputs": [
        {
          "internalType": "string",
          "name": "_ipfsHash",
          "type": "string"
        }
      ],
      "name": "storeTrafficData",
      "outputs": [],
      "stateMutability": "nonpayable",
      "type": "function"
    },
    {
      "inputs": [],
      "name": "trafficIpfsHash",
      "outputs": [
        {
          "internalType": "string",
          "name": "",
          "type": "string"
        }
      ],
      "stateMutability": "view",
      "type": "function"
    }
  ],
  "bytecode": "0x608060405234801561001057600080fd5b5061081e806100206000396000f3fe608060405234801561001057600080fd5b50600436106100625760003560e01c80630db6adac1461006757806340b56ff7146100855780635412bb9b146100a157806367769216146100bf57806375e6641a146100db578063d0e21688146100f9575b600080fd5b61006f610117565b60405161007c9190610646565b60405180910390f35b61009f600480360381019061009a919061058c565b6101a9565b005b6100a961023e565b6040516100b69190610646565b60405180910390f35b6100d960048036038101906100d4919061058c565b6102cc565b005b6100e3610361565b6040516100f09190610646565b60405180910390f35b6101016103ef565b60405161010e9190610646565b60405180910390f35b60606000805461012690610747565b80601f016020809104026020016040519081016040528092919081815260200182805461015290610747565b801561019f5780601f106101745761010080835404028352916020019161019f565b820191906000526020600020905b81548152906001019060200180831161018257829003601f168201915b5050505050905090565b60008151116101ed576040517f08c379a00000000000000000000000000000000000000000000000000000000081526004016101e490610668565b60405180910390fd5b8060009080519060200190610203929190610481565b507f92d4bb9a3473ac37cd708b9397aee012acdaef6d73de7a03a15c87314c6bd998816040516102339190610646565b60405180910390a150565b6000805461024b90610747565b80601f016020809104026020016040519081016040528092919081815260200182805461027790610747565b80156102c45780601f10610299576101008083540402835291602001916102c4565b820191906000526020600020905b8154815290600101906020018083116102a757829003601f168201915b505050505081565b6000815111610310576040517f08c379a000000000000000000000000000000000000000000000000000000000815260040161030790610668565b60405180910390fd5b8060019080519060200190610326929190610481565b507f74c29b4c18b0b576157dc493a73b86def7a97b2cd7134160c283ce5fa8d27b1f816040516103569190610646565b60405180910390a150565b6001805461036e90610747565b80601f016020809104026020016040519081016040528092919081815260200182805461039a90610747565b80156103e75780601f106103bc576101008083540402835291602001916103e7565b820191906000526020600020905b8154815290600101906020018083116103ca57829003601f168201915b505050505081565b6060600180546103fe90610747565b80601f016020809104026020016040519081016040528092919081815260200182805461042a90610747565b80156104775780601f1061044c57610100808354040283529160200191610477565b820191906000526020600020905b81548152906001019060200180831161045a57829003601f168201915b5050505050905090565b82805461048d90610747565b90600052602060002090601f0160209004810192826104af57600085556104f6565b82601f106104c857805160ff19168380011785556104f6565b828001600101855582156104f6579182015b828111156104f55782518255916020019190600101906104da565b5b5090506105039190610507565b5090565b5b80821115610520576000816000905550600101610508565b5090565b6000610537610532846106b9565b610688565b90508281526020810184848401111561054f57600080fd5b61055a848285610705565b509392505050565b600082601f83011261057357600080fd5b8135610583848260208601610524565b91505092915050565b60006020828403121561059e57600080fd5b600082013567ffffffffffffffff8111156105b857600080fd5b6105c484828501610562565b91505092915050565b60006105d8826106e9565b6105e281856106f4565b93506105f2818560208601610714565b6105fb816107d7565b840191505092915050565b60006106136019836106f4565b91507f4950465320686173682063616e6e6f7420626520656d707479000000000000006000830152602082019050919050565b6000602082019050818103600083015261066081846105cd565b905092915050565b6000602082019050818103600083015261068181610606565b9050919050565b6000604051905081810181811067ffffffffffffffff821117156106af576106ae6107a8565b5b8060405250919050565b600067ffffffffffffffff8211156106d4576106d36107a8565b5b601f19601f8301169050602081019050919050565b600081519050919050565b600082825260208201905092915050565b82818337600083830152505050565b60005b83811015610732578082015181840152602081019050610717565b83811115610741576000848401525b50505050565b6000600282049050600182168061075f57607f821691505b6020821081141561077357610772610779565b5b50919050565b7f4e487b7100000000000000000000000000000000000000000000000000000000600052602260045260246000fd5b7f4e487b7100000000000000000000000000000000000000000000000000000000600052604160045260246000fd5b6000601f19601f830116905091905056fea2646970667358221220e7ad17854c1690c5e6beb100bf5f250280774b818d7ca51bc371c66e919101a264736f6c63430008000033",
  "linkReferences": {},
  "deployedLinkReferences": {}
}